{
  "contractName": "Review",
  "abi": [
    {
      "inputs": [
        {
          "internalType": "uint256",
          "name": "product_id",
          "type": "uint256"
        }
      ],
      "name": "getReviews",
      "outputs": [
        {
          "components": [
            {
              "internalType": "address",
              "name": "sender",
              "type": "address"
            },
            {
              "internalType": "string",
              "name": "description",
              "type": "string"
            }
          ],
          "internalType": "struct Review.ProductReview[]",
          "name": "",
          "type": "tuple[]"
        }
      ],
      "stateMutability": "view",
      "type": "function",
      "constant": true
    },
    {
      "inputs": [
        {
          "internalType": "uint256",
          "name": "product_id",
          "type": "uint256"
        }
      ],
      "name": "getReviewCount",
      "outputs": [
        {
          "internalType": "uint256",
          "name": "",
          "type": "uint256"
        }
      ],
      "stateMutability": "view",
      "type": "function",
      "constant": true
    },
    {
      "inputs": [
        {
          "internalType": "uint256",
          "name": "product_id",
          "type": "uint256"
        },
        {
          "internalType": "string",
          "name": "review",
          "type": "string"
        }
      ],
      "name": "addReview",
      "outputs": [],
      "stateMutability": "nonpayable",
      "type": "function"
    },
    {
      "inputs": [
        {
          "internalType": "address",
          "name": "user",
          "type": "address"
        }
      ],
      "name": "getLoyalty",
      "outputs": [
        {
          "internalType": "uint256",
          "name": "",
          "type": "uint256"
        }
      ],
      "stateMutability": "view",
      "type": "function",
      "constant": true
    }
  ],
  "bytecode": "0x608060405234801561001057600080fd5b50610bda806100206000396000f3fe608060405234801561001057600080fd5b506004361061004c5760003560e01c806309af7d86146100515780635bb0c5d6146100815780635d75135a1461009d5780639d4a2255146100cd575b600080fd5b61006b60048036038101906100669190610607565b6100fd565b604051610078919061064d565b60405180910390f35b61009b600480360381019061009691906107da565b610146565b005b6100b760048036038101906100b29190610836565b61037a565b6040516100c4919061064d565b60405180910390f35b6100e760048036038101906100e29190610836565b610399565b6040516100f491906109f9565b60405180910390f35b6000600160008373ffffffffffffffffffffffffffffffffffffffff1673ffffffffffffffffffffffffffffffffffffffff168152602001908152602001600020549050919050565b60001515600260003373ffffffffffffffffffffffffffffffffffffffff1673ffffffffffffffffffffffffffffffffffffffff168152602001908152602001600020600084815260200190815260200160002060009054906101000a900460ff161515146101ea576040517f08c379a00000000000000000000000000000000000000000000000000000000081526004016101e190610a9e565b60405180910390fd5b6001600260003373ffffffffffffffffffffffffffffffffffffffff1673ffffffffffffffffffffffffffffffffffffffff168152602001908152602001600020600084815260200190815260200160002060006101000a81548160ff02191690831515021790555060008083815260200190815260200160002060405180604001604052803373ffffffffffffffffffffffffffffffffffffffff16815260200183815250908060018154018082558091505060019003906000526020600020906002020160009091909190915060008201518160000160006101000a81548173ffffffffffffffffffffffffffffffffffffffff021916908373ffffffffffffffffffffffffffffffffffffffff160217905550602082015181600101908051906020019061031c9291906104f2565b5050506064600160003373ffffffffffffffffffffffffffffffffffffffff1673ffffffffffffffffffffffffffffffffffffffff168152602001908152602001600020600082825461036f9190610aed565b925050819055505050565b6000806000838152602001908152602001600020805490509050919050565b6060600080838152602001908152602001600020805480602002602001604051908101604052809291908181526020016000905b828210156104e757838290600052602060002090600202016040518060400160405290816000820160009054906101000a900473ffffffffffffffffffffffffffffffffffffffff1673ffffffffffffffffffffffffffffffffffffffff1673ffffffffffffffffffffffffffffffffffffffff16815260200160018201805461045690610b72565b80601f016020809104026020016040519081016040528092919081815260200182805461048290610b72565b80156104cf5780601f106104a4576101008083540402835291602001916104cf565b820191906000526020600020905b8154815290600101906020018083116104b257829003601f168201915b505050505081525050815260200190600101906103cd565b505050509050919050565b8280546104fe90610b72565b90600052602060002090601f0160209004810192826105205760008555610567565b82601f1061053957805160ff1916838001178555610567565b82800160010185558215610567579182015b8281111561056657825182559160200191906001019061054b565b5b5090506105749190610578565b5090565b5b80821115610591576000816000905550600101610579565b5090565b6000604051905090565b600080fd5b600080fd5b600073ffffffffffffffffffffffffffffffffffffffff82169050919050565b60006105d4826105a9565b9050919050565b6105e4816105c9565b81146105ef57600080fd5b50565b600081359050610601816105db565b92915050565b60006020828403121561061d5761061c61059f565b5b600061062b848285016105f2565b91505092915050565b6000819050919050565b61064781610634565b82525050565b6000602082019050610662600083018461063e565b92915050565b61067181610634565b811461067c57600080fd5b50565b60008135905061068e81610668565b92915050565b600080fd5b600080fd5b6000601f19601f8301169050919050565b7f4e487b7100000000000000000000000000000000000000000000000000000000600052604160045260246000fd5b6106e78261069e565b810181811067ffffffffffffffff82111715610706576107056106af565b5b80604052505050565b6000610719610595565b905061072582826106de565b919050565b600067ffffffffffffffff821115610745576107446106af565b5b61074e8261069e565b9050602081019050919050565b82818337600083830152505050565b600061077d6107788461072a565b61070f565b90508281526020810184848401111561079957610798610699565b5b6107a484828561075b565b509392505050565b600082601f8301126107c1576107c0610694565b5b81356107d184826020860161076a565b91505092915050565b600080604083850312156107f1576107f061059f565b5b60006107ff8582860161067f565b925050602083013567ffffffffffffffff8111156108205761081f6105a4565b5b61082c858286016107ac565b9150509250929050565b60006020828403121561084c5761084b61059f565b5b600061085a8482850161067f565b91505092915050565b600081519050919050565b600082825260208201905092915050565b6000819050602082019050919050565b610898816105c9565b82525050565b600081519050919050565b600082825260208201905092915050565b60005b838110156108d85780820151818401526020810190506108bd565b838111156108e7576000848401525b50505050565b60006108f88261089e565b61090281856108a9565b93506109128185602086016108ba565b61091b8161069e565b840191505092915050565b600060408301600083015161093e600086018261088f565b506020830151848203602086015261095682826108ed565b9150508091505092915050565b600061096f8383610926565b905092915050565b6000602082019050919050565b600061098f82610863565b610999818561086e565b9350836020820285016109ab8561087f565b8060005b858110156109e757848403895281516109c88582610963565b94506109d383610977565b925060208a019950506001810190506109af565b50829750879550505050505092915050565b60006020820190508181036000830152610a138184610984565b905092915050565b600082825260208201905092915050565b7f596f75206861766520616c726561647920726576696577656420666f7220746860008201527f69732070726f6475637421210000000000000000000000000000000000000000602082015250565b6000610a88602c83610a1b565b9150610a9382610a2c565b604082019050919050565b60006020820190508181036000830152610ab781610a7b565b9050919050565b7f4e487b7100000000000000000000000000000000000000000000000000000000600052601160045260246000fd5b6000610af882610634565b9150610b0383610634565b9250827fffffffffffffffffffffffffffffffffffffffffffffffffffffffffffffffff03821115610b3857610b37610abe565b5b828201905092915050565b7f4e487b7100000000000000000000000000000000000000000000000000000000600052602260045260246000fd5b60006002820490506001821680610b8a57607f821691505b60208210811415610b9e57610b9d610b43565b5b5091905056fea26469706673582212208f299024b98ed1a1ba61a902c1bcf4249f1d9887827274f12241dfbdb4679ef564736f6c634300080b0033",
  "immutableReferences": {},
  "source": "// SPDX-License-Identifier: MIT\r\npragma solidity ^0.8.1;\r\n\r\ncontract Review\r\n{\r\n    struct ProductReview\r\n    {\r\n        address sender;\r\n        string description;\r\n    }\r\n    mapping(uint => ProductReview[]) product_reviews;\r\n    mapping(address => uint) loyalty;\r\n    mapping(address => mapping(uint => bool)) has_reviewed;\r\n    function getReviews(uint product_id) external view returns (ProductReview[] memory)\r\n    {\r\n        return product_reviews[product_id];\r\n    }\r\n    \r\n    function getReviewCount(uint product_id) external view returns (uint )\r\n    {\r\n        return product_reviews[product_id].length;\r\n    }\r\n    \r\n    function addReview(uint product_id , string memory review) external \r\n    {\r\n        require (has_reviewed[msg.sender][product_id]==false,\"You have already reviewed for this product!!\");\r\n        has_reviewed[msg.sender][product_id]=true;\r\n        product_reviews[product_id].push(ProductReview(msg.sender,review));\r\n        loyalty[msg.sender]+=100;\r\n    }\r\n  \r\n    function getLoyalty(address user) external view returns (uint)\r\n    {\r\n        return loyalty[user];\r\n    }\r\n}",
  "sourcePath": "C:/Users/Nitin/Desktop/Sem 4/MPR/reviewchain/src/Review-Chain-model/Review-Chain-model/design/contracts/Review.sol",
  "compiler": {
    "name": "solc",
    "version": "0.8.11+commit.d7f03943.Emscripten.clang"
  },
  "schemaVersion": "3.3.4",
  "updatedAt": "2022-01-02T21:32:09.655Z",
  "networkType": "ethereum",
  "devdoc": {
    "kind": "dev",
    "methods": {},
    "version": 1
  },
  "userdoc": {
    "kind": "user",
    "methods": {},
    "version": 1
  }
}